{
  "_format": "hh-sol-artifact-1",
  "contractName": "Main",
  "sourceName": "contracts/Main.sol",
  "abi": [
    {
      "inputs": [],
      "stateMutability": "nonpayable",
      "type": "constructor"
    },
    {
      "inputs": [
        {
          "internalType": "uint256",
          "name": "",
          "type": "uint256"
        }
      ],
      "name": "addressOfSession",
      "outputs": [
        {
          "internalType": "address",
          "name": "",
          "type": "address"
        }
      ],
      "stateMutability": "view",
      "type": "function"
    },
    {
      "inputs": [],
      "name": "admin",
      "outputs": [
        {
          "internalType": "address",
          "name": "",
          "type": "address"
        }
      ],
      "stateMutability": "view",
      "type": "function"
    },
    {
      "inputs": [],
      "name": "checkRegistered",
      "outputs": [
        {
          "internalType": "address",
          "name": "",
          "type": "address"
        }
      ],
      "stateMutability": "view",
      "type": "function"
    },
    {
      "inputs": [
        {
          "internalType": "string",
          "name": "_productName",
          "type": "string"
        },
        {
          "internalType": "string",
          "name": "_productDescription",
          "type": "string"
        },
        {
          "internalType": "string[]",
          "name": "_productImages",
          "type": "string[]"
        },
        {
          "internalType": "uint256",
          "name": "_sessionDuration",
          "type": "uint256"
        }
      ],
      "name": "createNewSession",
      "outputs": [
        {
          "internalType": "contract Session",
          "name": "",
          "type": "address"
        }
      ],
      "stateMutability": "nonpayable",
      "type": "function"
    },
    {
      "inputs": [
        {
          "internalType": "uint256",
          "name": "_index",
          "type": "uint256"
        }
      ],
      "name": "getAddressSession",
      "outputs": [
        {
          "internalType": "address",
          "name": "",
          "type": "address"
        }
      ],
      "stateMutability": "view",
      "type": "function"
    },
    {
      "inputs": [
        {
          "internalType": "address",
          "name": "_addressSession",
          "type": "address"
        }
      ],
      "name": "getIsSession",
      "outputs": [
        {
          "internalType": "bool",
          "name": "",
          "type": "bool"
        }
      ],
      "stateMutability": "view",
      "type": "function"
    },
    {
      "inputs": [],
      "name": "getListParticipants",
      "outputs": [
        {
          "components": [
            {
              "internalType": "address",
              "name": "account",
              "type": "address"
            },
            {
              "internalType": "string",
              "name": "fullName",
              "type": "string"
            },
            {
              "internalType": "string",
              "name": "email",
              "type": "string"
            },
            {
              "internalType": "uint256",
              "name": "numberOfJoinedSession",
              "type": "uint256"
            },
            {
              "internalType": "uint256",
              "name": "deviation",
              "type": "uint256"
            }
          ],
          "internalType": "struct SharedStruct.Participant[]",
          "name": "",
          "type": "tuple[]"
        }
      ],
      "stateMutability": "view",
      "type": "function"
    },
    {
      "inputs": [],
      "name": "getParticipant",
      "outputs": [
        {
          "components": [
            {
              "internalType": "address",
              "name": "account",
              "type": "address"
            },
            {
              "internalType": "string",
              "name": "fullName",
              "type": "string"
            },
            {
              "internalType": "string",
              "name": "email",
              "type": "string"
            },
            {
              "internalType": "uint256",
              "name": "numberOfJoinedSession",
              "type": "uint256"
            },
            {
              "internalType": "uint256",
              "name": "deviation",
              "type": "uint256"
            }
          ],
          "internalType": "struct SharedStruct.Participant",
          "name": "",
          "type": "tuple"
        }
      ],
      "stateMutability": "view",
      "type": "function"
    },
    {
      "inputs": [
        {
          "internalType": "address",
          "name": "",
          "type": "address"
        }
      ],
      "name": "infoParticipant",
      "outputs": [
        {
          "internalType": "address",
          "name": "account",
          "type": "address"
        },
        {
          "internalType": "string",
          "name": "fullName",
          "type": "string"
        },
        {
          "internalType": "string",
          "name": "email",
          "type": "string"
        },
        {
          "internalType": "uint256",
          "name": "numberOfJoinedSession",
          "type": "uint256"
        },
        {
          "internalType": "uint256",
          "name": "deviation",
          "type": "uint256"
        }
      ],
      "stateMutability": "view",
      "type": "function"
    },
    {
      "inputs": [
        {
          "internalType": "address",
          "name": "",
          "type": "address"
        }
      ],
      "name": "isSession",
      "outputs": [
        {
          "internalType": "bool",
          "name": "",
          "type": "bool"
        }
      ],
      "stateMutability": "view",
      "type": "function"
    },
    {
      "inputs": [
        {
          "internalType": "uint256",
          "name": "",
          "type": "uint256"
        }
      ],
      "name": "participantKeys",
      "outputs": [
        {
          "internalType": "address",
          "name": "",
          "type": "address"
        }
      ],
      "stateMutability": "view",
      "type": "function"
    },
    {
      "inputs": [
        {
          "internalType": "string",
          "name": "_fullName",
          "type": "string"
        },
        {
          "internalType": "string",
          "name": "_email",
          "type": "string"
        }
      ],
      "name": "register",
      "outputs": [
        {
          "internalType": "bool",
          "name": "",
          "type": "bool"
        }
      ],
      "stateMutability": "nonpayable",
      "type": "function"
    },
    {
      "inputs": [
        {
          "internalType": "uint256",
          "name": "",
          "type": "uint256"
        }
      ],
      "name": "sessions",
      "outputs": [
        {
          "internalType": "contract Session",
          "name": "",
          "type": "address"
        }
      ],
      "stateMutability": "view",
      "type": "function"
    }
  ],
  "bytecode": "0x608060405234801561001057600080fd5b5033600560006101000a81548173ffffffffffffffffffffffffffffffffffffffff021916908373ffffffffffffffffffffffffffffffffffffffff1602179055506135c5806100616000396000f3fe60806040523480156200001157600080fd5b5060043610620000e25760003560e01c806383c4b7a31162000099578063a084343e116200006f578063a084343e1462000295578063b52c418514620002cb578063dc15f9c21462000301578063f851a440146200033757620000e2565b806383c4b7a314620001f357806394704a7f146200022957806398bb0f3b146200025f57620000e2565b8063032b9f1c14620000e757806314b87862146200011d5780633ffbd47f146200013f5780634608daf814620001755780635155f43114620001af5780635b01fb3914620001d1575b600080fd5b620001056004803603810190620000ff91906200137e565b62000359565b604051620001149190620013f5565b60405180910390f35b620001276200038c565b60405162000136919062001555565b60405180910390f35b6200015d6004803603810190620001579190620016ca565b62000657565b6040516200016c91906200176c565b60405180910390f35b6200019360048036038101906200018d9190620017ba565b62000900565b604051620001a69594939291906200184f565b60405180910390f35b620001b962000a76565b604051620001c8919062001a11565b60405180910390f35b620001db62000de6565b604051620001ea9190620013f5565b60405180910390f35b6200021160048036038101906200020b91906200137e565b62000ec1565b60405162000220919062001aa0565b60405180910390f35b6200024760048036038101906200024191906200137e565b62000f01565b604051620002569190620013f5565b60405180910390f35b6200027d60048036038101906200027791906200137e565b62000fd1565b6040516200028c9190620013f5565b60405180910390f35b620002b36004803603810190620002ad9190620017ba565b62001011565b604051620002c291906200176c565b60405180910390f35b620002e96004803603810190620002e3919062001bb9565b62001067565b604051620002f8919062001aa0565b60405180910390f35b6200031f6004803603810190620003199190620017ba565b62001296565b6040516200032e91906200176c565b60405180910390f35b62000341620012b6565b604051620003509190620013f5565b60405180910390f35b60046020528060005260406000206000915054906101000a900473ffffffffffffffffffffffffffffffffffffffff1681565b62000396620012dc565b600073ffffffffffffffffffffffffffffffffffffffff16600160003373ffffffffffffffffffffffffffffffffffffffff1673ffffffffffffffffffffffffffffffffffffffff16815260200190815260200160002060000160009054906101000a900473ffffffffffffffffffffffffffffffffffffffff1673ffffffffffffffffffffffffffffffffffffffff16036200046a576040517f08c379a0000000000000000000000000000000000000000000000000000000008152600401620004619062001cd8565b60405180910390fd5b600160003373ffffffffffffffffffffffffffffffffffffffff1673ffffffffffffffffffffffffffffffffffffffff1681526020019081526020016000206040518060a00160405290816000820160009054906101000a900473ffffffffffffffffffffffffffffffffffffffff1673ffffffffffffffffffffffffffffffffffffffff1673ffffffffffffffffffffffffffffffffffffffff1681526020016001820180546200051c9062001d29565b80601f01602080910402602001604051908101604052809291908181526020018280546200054a9062001d29565b80156200059b5780601f106200056f576101008083540402835291602001916200059b565b820191906000526020600020905b8154815290600101906020018083116200057d57829003601f168201915b50505050508152602001600282018054620005b69062001d29565b80601f0160208091040260200160405190810160405280929190818152602001828054620005e49062001d29565b8015620006355780601f10620006095761010080835404028352916020019162000635565b820191906000526020600020905b8154815290600101906020018083116200061757829003601f168201915b5050505050815260200160038201548152602001600482015481525050905090565b60008073ffffffffffffffffffffffffffffffffffffffff16600160003373ffffffffffffffffffffffffffffffffffffffff1673ffffffffffffffffffffffffffffffffffffffff16815260200190815260200160002060000160009054906101000a900473ffffffffffffffffffffffffffffffffffffffff1673ffffffffffffffffffffffffffffffffffffffff16146200072c576040517f08c379a0000000000000000000000000000000000000000000000000000000008152600401620007239062001dd4565b60405180910390fd5b600083511180156200073f575060008251115b62000781576040517f08c379a0000000000000000000000000000000000000000000000000000000008152600401620007789062001e6c565b60405180910390fd5b60006040518060a001604052803373ffffffffffffffffffffffffffffffffffffffff168152602001858152602001848152602001600081526020016000815250905080600160003373ffffffffffffffffffffffffffffffffffffffff1673ffffffffffffffffffffffffffffffffffffffff16815260200190815260200160002060008201518160000160006101000a81548173ffffffffffffffffffffffffffffffffffffffff021916908373ffffffffffffffffffffffffffffffffffffffff160217905550602082015181600101908162000862919062002056565b5060408201518160020190816200087a919062002056565b5060608201518160030155608082015181600401559050506000339080600181540180825580915050600190039060005260206000200160009091909190916101000a81548173ffffffffffffffffffffffffffffffffffffffff021916908373ffffffffffffffffffffffffffffffffffffffff160217905550600191505092915050565b60016020528060005260406000206000915090508060000160009054906101000a900473ffffffffffffffffffffffffffffffffffffffff16908060010180546200094b9062001d29565b80601f0160208091040260200160405190810160405280929190818152602001828054620009799062001d29565b8015620009ca5780601f106200099e57610100808354040283529160200191620009ca565b820191906000526020600020905b815481529060010190602001808311620009ac57829003601f168201915b505050505090806002018054620009e19062001d29565b80601f016020809104026020016040519081016040528092919081815260200182805462000a0f9062001d29565b801562000a605780601f1062000a345761010080835404028352916020019162000a60565b820191906000526020600020905b81548152906001019060200180831162000a4257829003601f168201915b5050505050908060030154908060040154905085565b6060600560009054906101000a900473ffffffffffffffffffffffffffffffffffffffff1673ffffffffffffffffffffffffffffffffffffffff163373ffffffffffffffffffffffffffffffffffffffff161462000b0b576040517f08c379a000000000000000000000000000000000000000000000000000000000815260040162000b02906200218d565b60405180910390fd5b6000808054905067ffffffffffffffff81111562000b2e5762000b2d62001583565b5b60405190808252806020026020018201604052801562000b6b57816020015b62000b57620012dc565b81526020019060019003908162000b4d5790505b50905060005b60008054905081101562000dde576001600080838154811062000b995762000b98620021af565b5b9060005260206000200160009054906101000a900473ffffffffffffffffffffffffffffffffffffffff1673ffffffffffffffffffffffffffffffffffffffff1673ffffffffffffffffffffffffffffffffffffffff1681526020019081526020016000206040518060a00160405290816000820160009054906101000a900473ffffffffffffffffffffffffffffffffffffffff1673ffffffffffffffffffffffffffffffffffffffff1673ffffffffffffffffffffffffffffffffffffffff16815260200160018201805462000c719062001d29565b80601f016020809104026020016040519081016040528092919081815260200182805462000c9f9062001d29565b801562000cf05780601f1062000cc45761010080835404028352916020019162000cf0565b820191906000526020600020905b81548152906001019060200180831162000cd257829003601f168201915b5050505050815260200160028201805462000d0b9062001d29565b80601f016020809104026020016040519081016040528092919081815260200182805462000d399062001d29565b801562000d8a5780601f1062000d5e5761010080835404028352916020019162000d8a565b820191906000526020600020905b81548152906001019060200180831162000d6c57829003601f168201915b505050505081526020016003820154815260200160048201548152505082828151811062000dbd5762000dbc620021af565b5b6020026020010181905250808062000dd5906200220d565b91505062000b71565b508091505090565b60008073ffffffffffffffffffffffffffffffffffffffff16600160003373ffffffffffffffffffffffffffffffffffffffff1673ffffffffffffffffffffffffffffffffffffffff16815260200190815260200160002060000160009054906101000a900473ffffffffffffffffffffffffffffffffffffffff1673ffffffffffffffffffffffffffffffffffffffff160362000ebb576040517f08c379a000000000000000000000000000000000000000000000000000000000815260040162000eb29062001cd8565b60405180910390fd5b33905090565b6003818154811062000ed257600080fd5b906000526020600020016000915054906101000a900473ffffffffffffffffffffffffffffffffffffffff1681565b6000600560009054906101000a900473ffffffffffffffffffffffffffffffffffffffff1673ffffffffffffffffffffffffffffffffffffffff163373ffffffffffffffffffffffffffffffffffffffff161462000f96576040517f08c379a000000000000000000000000000000000000000000000000000000000815260040162000f8d906200218d565b60405180910390fd5b6004600083815260200190815260200160002060009054906101000a900473ffffffffffffffffffffffffffffffffffffffff169050919050565b6000818154811062000fe257600080fd5b906000526020600020016000915054906101000a900473ffffffffffffffffffffffffffffffffffffffff1681565b6000600260008373ffffffffffffffffffffffffffffffffffffffff1673ffffffffffffffffffffffffffffffffffffffff16815260200190815260200160002060009054906101000a900460ff169050919050565b6000600560009054906101000a900473ffffffffffffffffffffffffffffffffffffffff1673ffffffffffffffffffffffffffffffffffffffff163373ffffffffffffffffffffffffffffffffffffffff1614620010fc576040517f08c379a0000000000000000000000000000000000000000000000000000000008152600401620010f3906200218d565b60405180910390fd5b600030600560009054906101000a900473ffffffffffffffffffffffffffffffffffffffff1687878760008089604051620011379062001321565b6200114a9897969594939291906200236d565b604051809103906000f08015801562001167573d6000803e3d6000fd5b5090506003819080600181540180825580915050600190039060005260206000200160009091909190916101000a81548173ffffffffffffffffffffffffffffffffffffffff021916908373ffffffffffffffffffffffffffffffffffffffff16021790555080600460006001600380549050620011e6919062002410565b815260200190815260200160002060006101000a81548173ffffffffffffffffffffffffffffffffffffffff021916908373ffffffffffffffffffffffffffffffffffffffff1602179055506001600260008373ffffffffffffffffffffffffffffffffffffffff1673ffffffffffffffffffffffffffffffffffffffff16815260200190815260200160002060006101000a81548160ff02191690831515021790555080915050949350505050565b60026020528060005260406000206000915054906101000a900460ff1681565b600560009054906101000a900473ffffffffffffffffffffffffffffffffffffffff1681565b6040518060a00160405280600073ffffffffffffffffffffffffffffffffffffffff168152602001606081526020016060815260200160008152602001600081525090565b611144806200244c83390190565b6000604051905090565b600080fd5b600080fd5b6000819050919050565b620013588162001343565b81146200136457600080fd5b50565b60008135905062001378816200134d565b92915050565b60006020828403121562001397576200139662001339565b5b6000620013a78482850162001367565b91505092915050565b600073ffffffffffffffffffffffffffffffffffffffff82169050919050565b6000620013dd82620013b0565b9050919050565b620013ef81620013d0565b82525050565b60006020820190506200140c6000830184620013e4565b92915050565b6200141d81620013d0565b82525050565b600081519050919050565b600082825260208201905092915050565b60005b838110156200145f57808201518184015260208101905062001442565b60008484015250505050565b6000601f19601f8301169050919050565b6000620014898262001423565b6200149581856200142e565b9350620014a78185602086016200143f565b620014b2816200146b565b840191505092915050565b620014c88162001343565b82525050565b600060a083016000830151620014e8600086018262001412565b50602083015184820360208601526200150282826200147c565b915050604083015184820360408601526200151e82826200147c565b9150506060830151620015356060860182620014bd565b5060808301516200154a6080860182620014bd565b508091505092915050565b60006020820190508181036000830152620015718184620014ce565b905092915050565b600080fd5b600080fd5b7f4e487b7100000000000000000000000000000000000000000000000000000000600052604160045260246000fd5b620015bd826200146b565b810181811067ffffffffffffffff82111715620015df57620015de62001583565b5b80604052505050565b6000620015f46200132f565b9050620016028282620015b2565b919050565b600067ffffffffffffffff82111562001625576200162462001583565b5b62001630826200146b565b9050602081019050919050565b82818337600083830152505050565b6000620016636200165d8462001607565b620015e8565b9050828152602081018484840111156200168257620016816200157e565b5b6200168f8482856200163d565b509392505050565b600082601f830112620016af57620016ae62001579565b5b8135620016c18482602086016200164c565b91505092915050565b60008060408385031215620016e457620016e362001339565b5b600083013567ffffffffffffffff8111156200170557620017046200133e565b5b620017138582860162001697565b925050602083013567ffffffffffffffff8111156200173757620017366200133e565b5b620017458582860162001697565b9150509250929050565b60008115159050919050565b62001766816200174f565b82525050565b60006020820190506200178360008301846200175b565b92915050565b6200179481620013d0565b8114620017a057600080fd5b50565b600081359050620017b48162001789565b92915050565b600060208284031215620017d357620017d262001339565b5b6000620017e384828501620017a3565b91505092915050565b600082825260208201905092915050565b60006200180a8262001423565b620018168185620017ec565b9350620018288185602086016200143f565b62001833816200146b565b840191505092915050565b620018498162001343565b82525050565b600060a082019050620018666000830188620013e4565b81810360208301526200187a8187620017fd565b90508181036040830152620018908186620017fd565b9050620018a160608301856200183e565b620018b060808301846200183e565b9695505050505050565b600081519050919050565b600082825260208201905092915050565b6000819050602082019050919050565b600060a08301600083015162001900600086018262001412565b50602083015184820360208601526200191a82826200147c565b915050604083015184820360408601526200193682826200147c565b91505060608301516200194d6060860182620014bd565b506080830151620019626080860182620014bd565b508091505092915050565b60006200197b8383620018e6565b905092915050565b6000602082019050919050565b60006200199d82620018ba565b620019a98185620018c5565b935083602082028501620019bd85620018d6565b8060005b85811015620019ff5784840389528151620019dd85826200196d565b9450620019ea8362001983565b925060208a01995050600181019050620019c1565b50829750879550505050505092915050565b6000602082019050818103600083015262001a2d818462001990565b905092915050565b6000819050919050565b600062001a6062001a5a62001a5484620013b0565b62001a35565b620013b0565b9050919050565b600062001a748262001a3f565b9050919050565b600062001a888262001a67565b9050919050565b62001a9a8162001a7b565b82525050565b600060208201905062001ab7600083018462001a8f565b92915050565b600067ffffffffffffffff82111562001adb5762001ada62001583565b5b602082029050602081019050919050565b600080fd5b600062001b0862001b028462001abd565b620015e8565b9050808382526020820190506020840283018581111562001b2e5762001b2d62001aec565b5b835b8181101562001b7c57803567ffffffffffffffff81111562001b575762001b5662001579565b5b80860162001b66898262001697565b8552602085019450505060208101905062001b30565b5050509392505050565b600082601f83011262001b9e5762001b9d62001579565b5b813562001bb084826020860162001af1565b91505092915050565b6000806000806080858703121562001bd65762001bd562001339565b5b600085013567ffffffffffffffff81111562001bf75762001bf66200133e565b5b62001c058782880162001697565b945050602085013567ffffffffffffffff81111562001c295762001c286200133e565b5b62001c378782880162001697565b935050604085013567ffffffffffffffff81111562001c5b5762001c5a6200133e565b5b62001c698782880162001b86565b925050606062001c7c8782880162001367565b91505092959194509250565b7f4e6f742072656769737465726564000000000000000000000000000000000000600082015250565b600062001cc0600e83620017ec565b915062001ccd8262001c88565b602082019050919050565b6000602082019050818103600083015262001cf38162001cb1565b9050919050565b7f4e487b7100000000000000000000000000000000000000000000000000000000600052602260045260246000fd5b6000600282049050600182168062001d4257607f821691505b60208210810362001d585762001d5762001cfa565b5b50919050565b7f5061727469636970616e742068617320616c726561647920726567697374657260008201527f6564000000000000000000000000000000000000000000000000000000000000602082015250565b600062001dbc602283620017ec565b915062001dc98262001d5e565b604082019050919050565b6000602082019050818103600083015262001def8162001dad565b9050919050565b7f506c656173652066696c6c20696e20626f746820796f75722066756c6c206e6160008201527f6d6520616e6420656d61696c2061646472657373000000000000000000000000602082015250565b600062001e54603483620017ec565b915062001e618262001df6565b604082019050919050565b6000602082019050818103600083015262001e878162001e45565b9050919050565b60008190508160005260206000209050919050565b60006020601f8301049050919050565b600082821b905092915050565b60006008830262001ef27fffffffffffffffffffffffffffffffffffffffffffffffffffffffffffffffff8262001eb3565b62001efe868362001eb3565b95508019841693508086168417925050509392505050565b600062001f3762001f3162001f2b8462001343565b62001a35565b62001343565b9050919050565b6000819050919050565b62001f538362001f16565b62001f6b62001f628262001f3e565b84845462001ec0565b825550505050565b600090565b62001f8262001f73565b62001f8f81848462001f48565b505050565b5b8181101562001fb75762001fab60008262001f78565b60018101905062001f95565b5050565b601f821115620020065762001fd08162001e8e565b62001fdb8462001ea3565b8101602085101562001feb578190505b6200200362001ffa8562001ea3565b83018262001f94565b50505b505050565b600082821c905092915050565b60006200202b600019846008026200200b565b1980831691505092915050565b600062002046838362002018565b9150826002028217905092915050565b620020618262001423565b67ffffffffffffffff8111156200207d576200207c62001583565b5b62002089825462001d29565b6200209682828562001fbb565b600060209050601f831160018114620020ce5760008415620020b9578287015190505b620020c5858262002038565b86555062002135565b601f198416620020de8662001e8e565b60005b828110156200210857848901518255600182019150602085019450602081019050620020e1565b8683101562002128578489015162002124601f89168262002018565b8355505b6001600288020188555050505b505050505050565b7f4d7573742062652041646d696e2063616e20626520616374696f6e0000000000600082015250565b600062002175601b83620017ec565b915062002182826200213d565b602082019050919050565b60006020820190508181036000830152620021a88162002166565b9050919050565b7f4e487b7100000000000000000000000000000000000000000000000000000000600052603260045260246000fd5b7f4e487b7100000000000000000000000000000000000000000000000000000000600052601160045260246000fd5b60006200221a8262001343565b91507fffffffffffffffffffffffffffffffffffffffffffffffffffffffffffffffff82036200224f576200224e620021de565b5b600182019050919050565b600081519050919050565b600082825260208201905092915050565b6000819050602082019050919050565b60006200229483836200147c565b905092915050565b6000602082019050919050565b6000620022b6826200225a565b620022c2818562002265565b935083602082028501620022d68562002276565b8060005b85811015620023185784840389528151620022f6858262002286565b945062002303836200229c565b925060208a01995050600181019050620022da565b50829750879550505050505092915050565b6000819050919050565b6000620023556200234f62002349846200232a565b62001a35565b62001343565b9050919050565b620023678162002334565b82525050565b60006101008201905062002385600083018b620013e4565b62002394602083018a620013e4565b8181036040830152620023a88189620017fd565b90508181036060830152620023be8188620017fd565b90508181036080830152620023d48187620022a9565b9050620023e560a08301866200235c565b620023f460c08301856200235c565b6200240360e08301846200183e565b9998505050505050505050565b60006200241d8262001343565b91506200242a8362001343565b9250828203905081811115620024455762002444620021de565b5b9291505056fe60a06040523480156200001157600080fd5b50604051620011443803806200114483398181016040528101906200003791906200056b565b87600860006101000a81548173ffffffffffffffffffffffffffffffffffffffff021916908373ffffffffffffffffffffffffffffffffffffffff16021790555086600760006101000a81548173ffffffffffffffffffffffffffffffffffffffff021916908373ffffffffffffffffffffffffffffffffffffffff160217905550826005819055508560009081620000d19190620008d2565b508460019081620000e39190620008d2565b508360029080519060200190620000fc9291906200014f565b50816006819055506000600860146101000a81548160ff021916908360018111156200012d576200012c620009b9565b5b02179055504260808181525050806009819055505050505050505050620009e8565b8280548282559060005260206000209081019282156200019c579160200282015b828111156200019b5782518290816200018a9190620008d2565b509160200191906001019062000170565b5b509050620001ab9190620001af565b5090565b5b80821115620001d35760008181620001c99190620001d7565b50600101620001b0565b5090565b508054620001e590620006cb565b6000825580601f10620001f957506200021a565b601f0160209004906000526020600020908101906200021991906200021d565b5b50565b5b80821115620002385760008160009055506001016200021e565b5090565b6000604051905090565b600080fd5b600080fd5b600073ffffffffffffffffffffffffffffffffffffffff82169050919050565b60006200027d8262000250565b9050919050565b6200028f8162000270565b81146200029b57600080fd5b50565b600081519050620002af8162000284565b92915050565b600080fd5b600080fd5b6000601f19601f8301169050919050565b7f4e487b7100000000000000000000000000000000000000000000000000000000600052604160045260246000fd5b6200030a82620002bf565b810181811067ffffffffffffffff821117156200032c576200032b620002d0565b5b80604052505050565b6000620003416200023c565b90506200034f8282620002ff565b919050565b600067ffffffffffffffff821115620003725762000371620002d0565b5b6200037d82620002bf565b9050602081019050919050565b60005b83811015620003aa5780820151818401526020810190506200038d565b60008484015250505050565b6000620003cd620003c78462000354565b62000335565b905082815260208101848484011115620003ec57620003eb620002ba565b5b620003f98482856200038a565b509392505050565b600082601f830112620004195762000418620002b5565b5b81516200042b848260208601620003b6565b91505092915050565b600067ffffffffffffffff821115620004525762000451620002d0565b5b602082029050602081019050919050565b600080fd5b60006200047f620004798462000434565b62000335565b90508083825260208201905060208402830185811115620004a557620004a462000463565b5b835b81811015620004f357805167ffffffffffffffff811115620004ce57620004cd620002b5565b5b808601620004dd898262000401565b85526020850194505050602081019050620004a7565b5050509392505050565b600082601f830112620005155762000514620002b5565b5b81516200052784826020860162000468565b91505092915050565b6000819050919050565b620005458162000530565b81146200055157600080fd5b50565b60008151905062000565816200053a565b92915050565b600080600080600080600080610100898b0312156200058f576200058e62000246565b5b60006200059f8b828c016200029e565b9850506020620005b28b828c016200029e565b975050604089015167ffffffffffffffff811115620005d657620005d56200024b565b5b620005e48b828c0162000401565b965050606089015167ffffffffffffffff8111156200060857620006076200024b565b5b620006168b828c0162000401565b955050608089015167ffffffffffffffff8111156200063a57620006396200024b565b5b620006488b828c01620004fd565b94505060a06200065b8b828c0162000554565b93505060c06200066e8b828c0162000554565b92505060e0620006818b828c0162000554565b9150509295985092959890939650565b600081519050919050565b7f4e487b7100000000000000000000000000000000000000000000000000000000600052602260045260246000fd5b60006002820490506001821680620006e457607f821691505b602082108103620006fa57620006f96200069c565b5b50919050565b60008190508160005260206000209050919050565b60006020601f8301049050919050565b600082821b905092915050565b600060088302620007647fffffffffffffffffffffffffffffffffffffffffffffffffffffffffffffffff8262000725565b62000770868362000725565b95508019841693508086168417925050509392505050565b6000819050919050565b6000620007b3620007ad620007a78462000530565b62000788565b62000530565b9050919050565b6000819050919050565b620007cf8362000792565b620007e7620007de82620007ba565b84845462000732565b825550505050565b600090565b620007fe620007ef565b6200080b818484620007c4565b505050565b5b81811015620008335762000827600082620007f4565b60018101905062000811565b5050565b601f82111562000882576200084c8162000700565b620008578462000715565b8101602085101562000867578190505b6200087f620008768562000715565b83018262000810565b50505b505050565b600082821c905092915050565b6000620008a76000198460080262000887565b1980831691505092915050565b6000620008c2838362000894565b9150826002028217905092915050565b620008dd8262000691565b67ffffffffffffffff811115620008f957620008f8620002d0565b5b620009058254620006cb565b6200091282828562000837565b600060209050601f8311600181146200094a576000841562000935578287015190505b620009418582620008b4565b865550620009b1565b601f1984166200095a8662000700565b60005b8281101562000984578489015182556001820191506020850194506020810190506200095d565b86831015620009a45784890151620009a0601f89168262000894565b8355505b6001600288020188555050505b505050505050565b7f4e487b7100000000000000000000000000000000000000000000000000000000600052602160045260246000fd5b60805161074362000a01600039600050506107436000f3fe608060405234801561001057600080fd5b50600436106100935760003560e01c8063c19d93fb11610066578063c19d93fb14610122578063cd9b7ecb14610140578063d270e7ab14610170578063e3635bfd1461018e578063f851a440146101ac57610093565b8063705c1a11146100985780637f7650eb146100c85780638a30f8cc146100e6578063a6b513ee14610104575b600080fd5b6100b260048036038101906100ad91906103e3565b6101ca565b6040516100bf9190610451565b60405180910390f35b6100d0610209565b6040516100dd91906104fc565b60405180910390f35b6100ee610297565b6040516100fb91906104fc565b60405180910390f35b61010c610325565b604051610119919061052d565b60405180910390f35b61012a61032b565b60405161013791906105bf565b60405180910390f35b61015a60048036038101906101559190610606565b61033e565b604051610167919061052d565b60405180910390f35b610178610356565b6040516101859190610692565b60405180910390f35b61019661037c565b6040516101a3919061052d565b60405180910390f35b6101b4610382565b6040516101c19190610451565b60405180910390f35b600381815481106101da57600080fd5b906000526020600020016000915054906101000a900473ffffffffffffffffffffffffffffffffffffffff1681565b60008054610216906106dc565b80601f0160208091040260200160405190810160405280929190818152602001828054610242906106dc565b801561028f5780601f106102645761010080835404028352916020019161028f565b820191906000526020600020905b81548152906001019060200180831161027257829003601f168201915b505050505081565b600180546102a4906106dc565b80601f01602080910402602001604051908101604052809291908181526020018280546102d0906106dc565b801561031d5780601f106102f25761010080835404028352916020019161031d565b820191906000526020600020905b81548152906001019060200180831161030057829003601f168201915b505050505081565b60065481565b600860149054906101000a900460ff1681565b60046020528060005260406000206000915090505481565b600860009054906101000a900473ffffffffffffffffffffffffffffffffffffffff1681565b60055481565b600760009054906101000a900473ffffffffffffffffffffffffffffffffffffffff1681565b600080fd5b6000819050919050565b6103c0816103ad565b81146103cb57600080fd5b50565b6000813590506103dd816103b7565b92915050565b6000602082840312156103f9576103f86103a8565b5b6000610407848285016103ce565b91505092915050565b600073ffffffffffffffffffffffffffffffffffffffff82169050919050565b600061043b82610410565b9050919050565b61044b81610430565b82525050565b60006020820190506104666000830184610442565b92915050565b600081519050919050565b600082825260208201905092915050565b60005b838110156104a657808201518184015260208101905061048b565b60008484015250505050565b6000601f19601f8301169050919050565b60006104ce8261046c565b6104d88185610477565b93506104e8818560208601610488565b6104f1816104b2565b840191505092915050565b6000602082019050818103600083015261051681846104c3565b905092915050565b610527816103ad565b82525050565b6000602082019050610542600083018461051e565b92915050565b7f4e487b7100000000000000000000000000000000000000000000000000000000600052602160045260246000fd5b6002811061058857610587610548565b5b50565b600081905061059982610577565b919050565b60006105a98261058b565b9050919050565b6105b98161059e565b82525050565b60006020820190506105d460008301846105b0565b92915050565b6105e381610430565b81146105ee57600080fd5b50565b600081359050610600816105da565b92915050565b60006020828403121561061c5761061b6103a8565b5b600061062a848285016105f1565b91505092915050565b6000819050919050565b600061065861065361064e84610410565b610633565b610410565b9050919050565b600061066a8261063d565b9050919050565b600061067c8261065f565b9050919050565b61068c81610671565b82525050565b60006020820190506106a76000830184610683565b92915050565b7f4e487b7100000000000000000000000000000000000000000000000000000000600052602260045260246000fd5b600060028204905060018216806106f457607f821691505b602082108103610707576107066106ad565b5b5091905056fea2646970667358221220f4734cc33e6651b820a180b140274d365cb5dc38db596914624bf7d343ae711664736f6c63430008130033a264697066735822122075e5ae9a7968834d18fff0500366c537bc4c174991ad0c85cc94eda817c2783f64736f6c63430008130033",
  "linkReferences": {},
  "deployedLinkReferences": {}
}