{
  "_format": "hh-sol-artifact-1",
  "contractName": "Session",
  "sourceName": "contracts/Session.sol",
  "abi": [
    {
      "inputs": [
        {
          "internalType": "address",
          "name": "_mainContract",
          "type": "address"
        },
        {
          "internalType": "address",
          "name": "_admin",
          "type": "address"
        },
        {
          "internalType": "string",
          "name": "_productName",
          "type": "string"
        },
        {
          "internalType": "string",
          "name": "_productDescription",
          "type": "string"
        },
        {
          "internalType": "string[]",
          "name": "_productImages",
          "type": "string[]"
        },
        {
          "internalType": "uint256",
          "name": "_proposedPrice",
          "type": "uint256"
        },
        {
          "internalType": "uint256",
          "name": "_finalPrice",
          "type": "uint256"
        },
        {
          "internalType": "uint256",
          "name": "_sessionDuration",
          "type": "uint256"
        }
      ],
      "stateMutability": "nonpayable",
      "type": "constructor"
    },
    {
      "inputs": [],
      "name": "admin",
      "outputs": [
        {
          "internalType": "address",
          "name": "",
          "type": "address"
        }
      ],
      "stateMutability": "view",
      "type": "function"
    },
    {
      "inputs": [],
      "name": "finalPrice",
      "outputs": [
        {
          "internalType": "uint256",
          "name": "",
          "type": "uint256"
        }
      ],
      "stateMutability": "view",
      "type": "function"
    },
    {
      "inputs": [],
      "name": "mainContract",
      "outputs": [
        {
          "internalType": "contract Main",
          "name": "",
          "type": "address"
        }
      ],
      "stateMutability": "view",
      "type": "function"
    },
    {
      "inputs": [],
      "name": "productDescription",
      "outputs": [
        {
          "internalType": "string",
          "name": "",
          "type": "string"
        }
      ],
      "stateMutability": "view",
      "type": "function"
    },
    {
      "inputs": [],
      "name": "productName",
      "outputs": [
        {
          "internalType": "string",
          "name": "",
          "type": "string"
        }
      ],
      "stateMutability": "view",
      "type": "function"
    },
    {
      "inputs": [],
      "name": "proposedPrice",
      "outputs": [
        {
          "internalType": "uint256",
          "name": "",
          "type": "uint256"
        }
      ],
      "stateMutability": "view",
      "type": "function"
    },
    {
      "inputs": [
        {
          "internalType": "uint256",
          "name": "",
          "type": "uint256"
        }
      ],
      "name": "sessionParticipants",
      "outputs": [
        {
          "internalType": "address",
          "name": "",
          "type": "address"
        }
      ],
      "stateMutability": "view",
      "type": "function"
    },
    {
      "inputs": [
        {
          "internalType": "address",
          "name": "",
          "type": "address"
        }
      ],
      "name": "sessionProposes",
      "outputs": [
        {
          "internalType": "uint256",
          "name": "",
          "type": "uint256"
        }
      ],
      "stateMutability": "view",
      "type": "function"
    },
    {
      "inputs": [],
      "name": "state",
      "outputs": [
        {
          "internalType": "enum SharedStruct.State",
          "name": "",
          "type": "uint8"
        }
      ],
      "stateMutability": "view",
      "type": "function"
    }
  ],
  "bytecode": "0x60a06040523480156200001157600080fd5b50604051620011443803806200114483398181016040528101906200003791906200056b565b87600860006101000a81548173ffffffffffffffffffffffffffffffffffffffff021916908373ffffffffffffffffffffffffffffffffffffffff16021790555086600760006101000a81548173ffffffffffffffffffffffffffffffffffffffff021916908373ffffffffffffffffffffffffffffffffffffffff160217905550826005819055508560009081620000d19190620008d2565b508460019081620000e39190620008d2565b508360029080519060200190620000fc9291906200014f565b50816006819055506000600860146101000a81548160ff021916908360018111156200012d576200012c620009b9565b5b02179055504260808181525050806009819055505050505050505050620009e8565b8280548282559060005260206000209081019282156200019c579160200282015b828111156200019b5782518290816200018a9190620008d2565b509160200191906001019062000170565b5b509050620001ab9190620001af565b5090565b5b80821115620001d35760008181620001c99190620001d7565b50600101620001b0565b5090565b508054620001e590620006cb565b6000825580601f10620001f957506200021a565b601f0160209004906000526020600020908101906200021991906200021d565b5b50565b5b80821115620002385760008160009055506001016200021e565b5090565b6000604051905090565b600080fd5b600080fd5b600073ffffffffffffffffffffffffffffffffffffffff82169050919050565b60006200027d8262000250565b9050919050565b6200028f8162000270565b81146200029b57600080fd5b50565b600081519050620002af8162000284565b92915050565b600080fd5b600080fd5b6000601f19601f8301169050919050565b7f4e487b7100000000000000000000000000000000000000000000000000000000600052604160045260246000fd5b6200030a82620002bf565b810181811067ffffffffffffffff821117156200032c576200032b620002d0565b5b80604052505050565b6000620003416200023c565b90506200034f8282620002ff565b919050565b600067ffffffffffffffff821115620003725762000371620002d0565b5b6200037d82620002bf565b9050602081019050919050565b60005b83811015620003aa5780820151818401526020810190506200038d565b60008484015250505050565b6000620003cd620003c78462000354565b62000335565b905082815260208101848484011115620003ec57620003eb620002ba565b5b620003f98482856200038a565b509392505050565b600082601f830112620004195762000418620002b5565b5b81516200042b848260208601620003b6565b91505092915050565b600067ffffffffffffffff821115620004525762000451620002d0565b5b602082029050602081019050919050565b600080fd5b60006200047f620004798462000434565b62000335565b90508083825260208201905060208402830185811115620004a557620004a462000463565b5b835b81811015620004f357805167ffffffffffffffff811115620004ce57620004cd620002b5565b5b808601620004dd898262000401565b85526020850194505050602081019050620004a7565b5050509392505050565b600082601f830112620005155762000514620002b5565b5b81516200052784826020860162000468565b91505092915050565b6000819050919050565b620005458162000530565b81146200055157600080fd5b50565b60008151905062000565816200053a565b92915050565b600080600080600080600080610100898b0312156200058f576200058e62000246565b5b60006200059f8b828c016200029e565b9850506020620005b28b828c016200029e565b975050604089015167ffffffffffffffff811115620005d657620005d56200024b565b5b620005e48b828c0162000401565b965050606089015167ffffffffffffffff8111156200060857620006076200024b565b5b620006168b828c0162000401565b955050608089015167ffffffffffffffff8111156200063a57620006396200024b565b5b620006488b828c01620004fd565b94505060a06200065b8b828c0162000554565b93505060c06200066e8b828c0162000554565b92505060e0620006818b828c0162000554565b9150509295985092959890939650565b600081519050919050565b7f4e487b7100000000000000000000000000000000000000000000000000000000600052602260045260246000fd5b60006002820490506001821680620006e457607f821691505b602082108103620006fa57620006f96200069c565b5b50919050565b60008190508160005260206000209050919050565b60006020601f8301049050919050565b600082821b905092915050565b600060088302620007647fffffffffffffffffffffffffffffffffffffffffffffffffffffffffffffffff8262000725565b62000770868362000725565b95508019841693508086168417925050509392505050565b6000819050919050565b6000620007b3620007ad620007a78462000530565b62000788565b62000530565b9050919050565b6000819050919050565b620007cf8362000792565b620007e7620007de82620007ba565b84845462000732565b825550505050565b600090565b620007fe620007ef565b6200080b818484620007c4565b505050565b5b81811015620008335762000827600082620007f4565b60018101905062000811565b5050565b601f82111562000882576200084c8162000700565b620008578462000715565b8101602085101562000867578190505b6200087f620008768562000715565b83018262000810565b50505b505050565b600082821c905092915050565b6000620008a76000198460080262000887565b1980831691505092915050565b6000620008c2838362000894565b9150826002028217905092915050565b620008dd8262000691565b67ffffffffffffffff811115620008f957620008f8620002d0565b5b620009058254620006cb565b6200091282828562000837565b600060209050601f8311600181146200094a576000841562000935578287015190505b620009418582620008b4565b865550620009b1565b601f1984166200095a8662000700565b60005b8281101562000984578489015182556001820191506020850194506020810190506200095d565b86831015620009a45784890151620009a0601f89168262000894565b8355505b6001600288020188555050505b505050505050565b7f4e487b7100000000000000000000000000000000000000000000000000000000600052602160045260246000fd5b60805161074362000a01600039600050506107436000f3fe608060405234801561001057600080fd5b50600436106100935760003560e01c8063c19d93fb11610066578063c19d93fb14610122578063cd9b7ecb14610140578063d270e7ab14610170578063e3635bfd1461018e578063f851a440146101ac57610093565b8063705c1a11146100985780637f7650eb146100c85780638a30f8cc146100e6578063a6b513ee14610104575b600080fd5b6100b260048036038101906100ad91906103e3565b6101ca565b6040516100bf9190610451565b60405180910390f35b6100d0610209565b6040516100dd91906104fc565b60405180910390f35b6100ee610297565b6040516100fb91906104fc565b60405180910390f35b61010c610325565b604051610119919061052d565b60405180910390f35b61012a61032b565b60405161013791906105bf565b60405180910390f35b61015a60048036038101906101559190610606565b61033e565b604051610167919061052d565b60405180910390f35b610178610356565b6040516101859190610692565b60405180910390f35b61019661037c565b6040516101a3919061052d565b60405180910390f35b6101b4610382565b6040516101c19190610451565b60405180910390f35b600381815481106101da57600080fd5b906000526020600020016000915054906101000a900473ffffffffffffffffffffffffffffffffffffffff1681565b60008054610216906106dc565b80601f0160208091040260200160405190810160405280929190818152602001828054610242906106dc565b801561028f5780601f106102645761010080835404028352916020019161028f565b820191906000526020600020905b81548152906001019060200180831161027257829003601f168201915b505050505081565b600180546102a4906106dc565b80601f01602080910402602001604051908101604052809291908181526020018280546102d0906106dc565b801561031d5780601f106102f25761010080835404028352916020019161031d565b820191906000526020600020905b81548152906001019060200180831161030057829003601f168201915b505050505081565b60065481565b600860149054906101000a900460ff1681565b60046020528060005260406000206000915090505481565b600860009054906101000a900473ffffffffffffffffffffffffffffffffffffffff1681565b60055481565b600760009054906101000a900473ffffffffffffffffffffffffffffffffffffffff1681565b600080fd5b6000819050919050565b6103c0816103ad565b81146103cb57600080fd5b50565b6000813590506103dd816103b7565b92915050565b6000602082840312156103f9576103f86103a8565b5b6000610407848285016103ce565b91505092915050565b600073ffffffffffffffffffffffffffffffffffffffff82169050919050565b600061043b82610410565b9050919050565b61044b81610430565b82525050565b60006020820190506104666000830184610442565b92915050565b600081519050919050565b600082825260208201905092915050565b60005b838110156104a657808201518184015260208101905061048b565b60008484015250505050565b6000601f19601f8301169050919050565b60006104ce8261046c565b6104d88185610477565b93506104e8818560208601610488565b6104f1816104b2565b840191505092915050565b6000602082019050818103600083015261051681846104c3565b905092915050565b610527816103ad565b82525050565b6000602082019050610542600083018461051e565b92915050565b7f4e487b7100000000000000000000000000000000000000000000000000000000600052602160045260246000fd5b6002811061058857610587610548565b5b50565b600081905061059982610577565b919050565b60006105a98261058b565b9050919050565b6105b98161059e565b82525050565b60006020820190506105d460008301846105b0565b92915050565b6105e381610430565b81146105ee57600080fd5b50565b600081359050610600816105da565b92915050565b60006020828403121561061c5761061b6103a8565b5b600061062a848285016105f1565b91505092915050565b6000819050919050565b600061065861065361064e84610410565b610633565b610410565b9050919050565b600061066a8261063d565b9050919050565b600061067c8261065f565b9050919050565b61068c81610671565b82525050565b60006020820190506106a76000830184610683565b92915050565b7f4e487b7100000000000000000000000000000000000000000000000000000000600052602260045260246000fd5b600060028204905060018216806106f457607f821691505b602082108103610707576107066106ad565b5b5091905056fea2646970667358221220f4734cc33e6651b820a180b140274d365cb5dc38db596914624bf7d343ae711664736f6c63430008130033",
  "linkReferences": {},
  "deployedLinkReferences": {}
}